:020000040800F2
:1000000000080020A9020008510800085D08000847
:10001000650800086D080008750800080000000069
:100020000000000000000000000000008908000837
:100030007D0800080000000095080008A1080008DD
:100040000503000805030008050300080503000870
:100050000503000805030008050300080503000860
:100060000503000805030008050300080503000850
:100070000503000805030008050300080503000840
:100080000503000805030008050300080503000830
:100090000503000805030008050300080503000820
:1000A0000503000805030008050300080503000810
:1000B000AD08000805030008050300080503000853
:1000C00005030008050300080503000805030008F0
:1000D00005030008050300080503000805030008E0
:1000E00005030008050300080503000805030008D0
:1000F00005030008050300080503000805030008C0
:1001000005030008050300080503000805030008AF
:10011000050300080503000805030008050300089F
:10012000050300080503000805030008050300088F
:10013000050300080503000805030008050300087F
:10014000050300080503000805030008050300086F
:10015000050300080503000805030008050300085F
:10016000050300080503000805030008050300084F
:10017000050300080503000805030008050300083F
:08018000050300080503000857
:1001880080B588B000AF7860396000F0BBF8012115
:10019800082000F05FF90121012000F079F94FF4FF
:1001A8007043BB6101233B770023BB770123FB77B7
:1001B80002237B7707F1180319462C4800F086F9CB
:1001C8000023BB820023FB8141F287333B6144F269
:1001D8009F13BB8107F10C0319464FF0804000F0D4
:1001E80003FA012201214FF0804000F087FA4FF412
:1001F800407000F0B7FA1C233B720123FB720F23F7
:100208007B720F23BB7207F10803184600F0BCFA93
:1002180001214FF0804000F051FA41F2707000F077
:1002280027F8124A114B5B6983F46043536140F627
:10023800C41000F01DF80D4A0C4B5B6983F4604351
:10024800536140F6C41000F013F8084A074B5B6985
:1002580083F46043536140F6C41000F009F8034A80
:10026800024B5B6983F460435361D6E7000C02409C
:1002780080B485B000AF786007E07B68FB6000BFA2
:10028800FB685A1EFA60002BFAD17B685A1E7A6006
:10029800002BF2D100BF1437BD4680BC704700BFA9
:1002A80080B582B000AF104B7B60104B3B6007E01D
:1002B8003B681A1D3A607A68111D796012681A60E5
:1002C8003B680B4A9342F3D30A480B494FF00002AC
:1002D8008842B8BF40F8042BFADBFFF751FF00BF94
:1002E8000837BD4680BD00BFD008000800000020C8
:1002F80000000020000800200008002080B400AFA3
:10030800FEE700BF80B500AF124A124B1B6843F0EE
:10031800010313600F4B00229A600E4A0D4B1B68B5
:1003280023F0847323F4803313600A4B0A4A5A601B
:10033800084A084B1B6823F480231360054B0022EE
:10034800DA6000F00DF8054B4FF000629A6000BFCC
:1003580080BD00BF003802401030002400ED00E0EE
:1003680080B483B000AF00237B6000233B60354A34
:10037800344B1B6843F480331360324B1B6803F41F
:1003880000333B607B6801337B603B68002B03D103
:100398007B68B3F5A06FF0D12A4B1B6803F40033D8
:1003A800002B02D001233B6001E000233B603B6847
:1003B800012B42D1234A234B1B6C43F08053136417
:1003C800214A214B1B6843F4804313601D4A1D4B8F
:1003D8009B6893601B4A1B4B9B6843F400439360E4
:1003E800184A184B9B6843F4A0539360154B174A5F
:1003F8005A60144A134B1B6843F08073136000BFA4
:10040800104B1B6803F00073002BF9D0104B40F21F
:1004180005621A600B4A0B4B9B6823F00303936039
:10042800084A084B9B6843F00203936000BF054BE2
:100438009B6803F00C03082BF9D100BF0C37BD46AD
:1004480080BC7047003802400070004008544007E4
:10045800003C024080B483B000AF78600B46FB706C
:10046800FB78002B06D00949084B1A6B7B681343AD
:100478000B6306E00549054B1A6B7B68DB431340A9
:100488000B6300BF0C37BD4680BC70470038024084
:1004980080B483B000AF78600B46FB70FB78002B0C
:1004A80006D00949084B1A6C7B6813430B6406E0B5
:1004B8000549054B1A6C7B68DB4313400B6400BF8E
:1004C8000C37BD4680BC70470038024080B487B006
:1004D80000AF7860396000237B6100233B61002313
:1004E800FB6000237B6176E001227B6902FA03F35B
:1004F8003B613B681A683B691340FB60FA683B69DB
:100508009A4265D17B681A687B695B00032101FA0E
:1005180003F3DB431A407B681A607B681A683B6800
:100528001B7919467B695B0001FA03F31A437B6860
:100538001A603B681B79012B03D03B681B79022B9F
:100548002ED17B689A687B695B00032101FA03F36B
:10055800DB431A407B689A607B689A683B685B79E2
:1005680019467B695B0001FA03F31A437B689A60BA
:100578007B685A687B699BB2012101FA03F3DB436C
:100588001A407B685A607B685A683B689B791946B1
:100598007B699BB201FA03F39BB21A437B685A60EA
:1005A8007B68DA687B699BB25B00032101FA03F37D
:1005B800DB431A407B68DA607B68DA683B68DB7982
:1005C80019467B695B0001FA03F31A437B68DA601A
:1005D8007B6901337B617B690F2B85D900BF1C3791
:1005E800BD4680BC704700BF80B485B000AF78605E
:1005F80039600023FB817B681B88FB817B68284A64
:10060800934213D07B68274A93420FD07B68B3F19B
:10061800804F0BD07B68244A934207D07B68234ADB
:10062800934203D07B68224A934208D1FB8923F086
:100638007003FB813B685A88FB891343FB817B6805
:100648001C4A93420CD07B681B4A934208D0FB8912
:1006580023F44073FB813B681A89FB891343FB81B0
:100668007B68FA891A803B685A687B68DA623B685B
:100678001A887B681A857B68094A934203D07B688D
:10068800084A934204D13B689B7A9AB27B681A86DF
:100698007B6801229A8200BF1437BD4680BC704730
:1006A8000000014000040140000400400008004030
:1006B800000C0040001000400014004080B483B0DB
:1006C80000AF78600B46FB70FB78002B08D07B6886
:1006D8001B889BB243F001039AB27B681A8007E03B
:1006E8007B681B889BB223F001039AB27B681A804F
:1006F80000BF0C37BD4680BC704700BF80B483B0D4
:1007080000AF78600B467B8013467B707B78002BAC
:1007180008D07B689B899AB27B8813439AB27B681E
:100728009A8109E07B689B899AB27B88DB439BB2FC
:1007380013409AB27B689A8100BF0C37BD4680BCD3
:10074800704700BF80B483B000AF78600B467B80F1
:100758007B88DB439AB27B681A8200BF0C37BD46A0
:1007680080BC704780B483B000AF7860054A7B686E
:1007780043F0BF6343F40033D36000BF0C37BD467A
:1007880080BC704700ED00E080B485B000AF7860B1
:100798000023FB730023BB730F237B737B68DB7819
:1007A800002B38D0264BDB68DB4303F4E0631B0ADD
:1007B800FB73FB7BC3F10403BB737A7BFB7B42FABD
:1007C80003F37B737B685B781A46BB7B02FA03F3FF
:1007D800FB737B689A787B7B1340DAB2FB7B13430D
:1007E800FB73FB7B1B01FB73164A7B681B78134466
:1007F800FA7B83F80023134A7B681B785B09DBB21A
:1008080018467B681B7803F01F03012101FA03F3E4
:1008180042F820300FE00B497B681B785B09DBB29C
:1008280018467B681B7803F01F0301229A4000F1E9
:10083800200341F8232000BF1437BD4680BC704711
:1008480000ED00E000E100E080B400AF00BFBD466D
:1008580080BC704780B400AFFEE700BF80B400AF33
:10086800FEE700BF80B400AFFEE700BF80B400AF72
:10087800FEE700BF80B400AF00BFBD4680BC704734
:1008880080B400AF00BFBD4680BC704780B400AFE5
:1008980000BFBD4680BC704780B400AF00BFBD46F6
:1008A80080BC704780B500AF01214FF08040FFF752
:1008B80049FF044A034B5B6983F48053536100BFCB
:0808C80080BD00BF000C0240DE
:020000042000DA
:1000000000000000000000000000000000000000F0
:1000100000000000000000000000000000000000E0
:1000200000000000000000000000000000000000D0
:1000300000000000000000000000000000000000C0
:04000005080002A944
:00000001FF
